:081800009A1004000000000032
:0818A000400F040000000000ED
:081BF8003220EF0083E0200021
:101C0000008041001040BA000160EF0000000600B3
:101C1000656E0000640A0000000000003220EF0042
:101C2000A3E12000008041001040BA000160EF00F5
:101C3000000006005379000073740000656D000019
:101C4000205200006561000064790000210A000054
:101C500000000000851F7800861F78005440800037
:101C60006220E10008003C00A4408000F4CFB200F4
:101C700002003A000A28EC0002003700140020009D
:101C8000544088003E003700544080006220E1004C
:101C90000B003400544080006520E10008003C0047
:101CA00054408000E302520044802000048342003C
:101CB0001488BF00004398000A28EC003000370069
:101CC000544080006620E10004003C0014C8BF00BE
:101CD0000EE8B7000A28EC002900370054408000C5
:101CE0006620E1000B003400544080006820E100D1
:101CF00008003C0054408000E702520004802000AD
:101D0000048342001488BF00004398000A28EC00B6
:101D10001B003700544080006820E1000B003400B5
:101D2000544080006A20E10008003C0054408000DC
:101D3000E902520024802000048342001488BF007E
:101D4000004398000A28EC000D0037005440800042
:101D50006A20E1000A003400544080006C20E10059
:101D600007003C0054408000EB02520084802000B9
:101D7000048342001488BF00004398000A28EC0046
:101D8000544080006C20E1003A0034000EC8BF00CF
:101D90000AE0B7000B60EF0000C8BF000160EF0071
:101DA0008502400001C8BF000160EF0085024000CD
:101DB00002C8BF000160EF008502400003C8BF00F9
:101DC0000160EF008502400004C8BF000CE0B700CE
:101DD0000D60EF0005C8BF000160EF000603400082
:101DE00006C8BF000160EF0006004000808252007C
:101DF000E182420065408800644080006020E1008C
:101E000004003D0064408000F3FF2F0003A0B900F0
:101E10000CA8B7000DC8BF00804278000B60EF002F
:101E2000050278000440780015E8B7000C88BF0070
:101E3000F00FB20016E8B7000A28EC0015C8BF0082
:101E40000848E3000B003A0016C8BF000948E30049
:101E500008003A000A28EC00544080006B20E100A2
:101E60000400340010C0B30007E8B70014002000DD
:101E7000544088004F037800CF027800000006002D
:101E80004200F8003600F8003200F800801F7800A9
:101E9000200020000C000900B01F78002202AE00D4
:101EA000FEFF37003011800012E8B70012C8BF00F3
:101EB00014E8B7002A0E0200000000008560A900A7
:101EC000A00120000C0009004F1078004F0078009E
:101ED0003200F9003600F9004200F9000040060027
:101EE000851F7800C500200003000900B51F780099
:101EF00000F0A6000C0037000000EA000480A000FB
:101F000004F0A60008003700801F7800D0022000EF
:101F10002322AF00FEFF370024A2B7004F00780055
:101F20000480A1000860ED008002EB0080037800CF
:101F30008404780004F0A1000404E00006003A00E4
:101F400009F0A70002003700050020000F0037004D
:101F5000050020000D003700E64252000A0039005B
:101F60000003200009F0A600000220002322AF0099
:101F7000FEFF370024A2B7008502E900FBFF3B000B
:101F80005500200001003700840278006400200022
:101F90000580A7000402E80005E0A00009F0A70002
:101FA00005F0A00008712200110009008883D80004
:101FB0001C1002000000000081037800883E200011
:101FC000110009008883D8001C10020000000000E6
:101FD0008103780048062000110009008883D8009A
:101FE0001C1002000000000081037800A8002000FF
:101FF000110009008883D8001C10020000000000B6
:102000000980A60005003700D00220002322AF007F
:10201000FEFF370024A2B7000980A10000032000C2
:1020200000C04000500188002322AF00FEFF3700AF
:1020300024A2B70020003700060320000000E000C3
:102040000E003A0005E0A600160037000402E90081
:102050000524E100020032004200AF00000006004B
:102060000000E00005003A0005E0A6000D00370082
:1020700005F0A600060220000A00370005E0A100D6
:102080000980A6000700370000057800D002200074
:102090002322AF00FEFF370024A2B7000980A10071
:1020A0000A007800004043002322AF00FEFF370003
:1020B00024A2B7000000060025012000030009004B
:1020C000CF127800CF027800000006003440800074
:1020D0004822DE006124E100150039000A88BF00B3
:1020E00004002000700F0200000000002322AF0057
:1020F000FEFF3700A400200024118800010020000A
:10210000010078000160EF00FC0D020000000000FB
:102110008100E8002322AF00FEFF370024A2B700B1
:10212000300020000008E600F5FF37000768EF00E8
:10213000000006000F782200F07F220020A0B700E8
:1021400000000000404424004005880081E0A80011
:102150006004200042E7B7007005200042E7B700A6
:1021600042C7A900C0F02300A4A6B7000030200099
:10217000CCA6B7006004200042E7B700700520003D
:1021800042E7B70042C7A8004427EF000400280038
:102190000411880004402000141188002062A80067
:1021A00024022000441188001400200054408800BC
:1021B0000C28EF000768EF000E68EF002CA3EF007B
:1021C0000028EF000228EF000428EF000668EF0067
:1021D0000828EF0081E0A900040E20001402880006
:1021E00081E0A800030009002682BF008560A900E5
:1021F0009560A80081E0A9004220EF0081E0A800DE
:1022000001002000010078000160EF000E0E0200C6
:10221000000000008100E8002322AF00FEFF37002D
:1022200024A2B700D00020000008E600F5FF370028
:102230006610020000000000FDFF37000040FE00B5
:020000040001F9
:0807F800F7F900FF7F3F00FF4D
:00000001FF
;PIC24FJ48GA002
;CRC=E08D  CREATED="10-Nov-18 22:42"
