:08180000AA1F04000000000013
:08184800240E04000000000062
:0818A000DE0F0400000000004F
:0818E800560E04000000000090
:08193000880E04000000000015
:081BF8003220EF0083E0200021
:101C0000008041001040BA000160EF0000000600B3
:101C100074790000706500003A200000256400001F
:101C20000A0000003220EF00E3E1200000804100C4
:101C30001040BA000160EF0000000600656E000071
:101C4000640A0000000000004200F8003600F800BE
:101C50003200F800801F7800200020000C000900EE
:101C6000B01F78000C08E20004003A000028ED00E4
:101C70004200AE000228ED00030037000028EC000F
:101C80004220AF000228EC008400A900A00120003F
:101C90000C0009004F1078004F0078003200F90066
:101CA0003600F9004200F900004006004200F8004A
:101CB0003600F8003200F800801F78002000200075
:101CC0000C000900B01F78000E08E20004003A0082
:101CD0000428ED004200AE000628ED0003003700A6
:101CE0000428EC004220AF000628EC008680A90002
:101CF000A00120000C0009004F1078004F00780070
:101D00003200F9003600F9004200F90000400600F8
:101D10004200F8003600F8003200F800801F78001A
:101D2000200020000C000900B01F78001008E2001D
:101D300004003A000828ED004200AE000A28ED0039
:101D4000030037000828EC004220AF000A28EC000E
:101D500087A0A900A00120000C0009004F10780006
:101D60004F0078003200F9003600F9004200F90017
:101D700000400600851F7800861F7800C440800060
:101D80006220E10008003C0054448000F4CFB2001F
:101D900002003A001828EC0002003700140020006E
:101DA000C440880045003700C44080006320E10043
:101DB00004003C008AC8BF0032E8B7001828EC00D5
:101DC0003E003700C44080006420E10004003C0075
:101DD0008AC8BF0033E8B7001828EC003700370086
:101DE000C44080006520E10004003C008AC8BF00B8
:101DF00034E8B7001828EC0030003700C4408000F9
:101E00006620E10004003C008AC8BF001DE8B7005E
:101E10001828EC0029003700C44080006620E1004B
:101E20000B003400C44080006820E10008003C0042
:101E3000C4408000E7025200248120000483420055
:101E40008A88BF00004398001828EC001B00370068
:101E5000C44080006820E1000B003400C4408000D2
:101E60006A20E10008003C00C4408000E902520002
:101E700044812000048342008A88BF000043980008
:101E80001828EC000D003700C44080006A20E100F3
:101E90000A003400C44080006C20E10007003C00D0
:101EA000C4408000EB0252006481200004834200A1
:101EB0008A88BF00004398001828EC00C4408000C6
:101EC0006C20E1003A00340012C8BF000AE0B700FD
:101ED0000B60EF0013C8BF000160EF0085024000F7
:101EE00014C8BF000160EF008502400015C8BF00A4
:101EF0000160EF00850240001DC8BF00004378006C
:101F00000D60EF0032C8BF000160EF000603400023
:101F100033C8BF000160EF000603400034C8BF00B3
:101F20000160EF000600400080825200E182420022
:101F3000D5408800D44080006020E10004003D00CE
:101F4000D4408000F3FF2F0003A0B9001AA8B70007
:101F50001BC8BF00804278000B60EF0005027800CC
:101F6000044078008BE8B7001A88BF00F00FB20079
:101F70008CE8B7001828EC008BC8BF001648E300B7
:101F80000B003A008CC8BF001748E30008003A0075
:101F90001828EC00C44080006D20E10004003400EB
:101FA00010C0B3001CE8B70014002000C440880033
:101FB0004F037800CF027800000006004200F800CE
:101FC0003600F8003200F800801F78002000200062
:101FD0000C000900B01F78002202AE00FEFF37009F
:101FE0003011800088E8B70088C8BF008AE8B700D1
:101FF000BA0E0200000000008560A900A0012000C8
:102000000C0009004F1078004F0078003200F900F2
:102010003600F9004200F900004006009400A800D4
:102020008200A9009680A8008220A90097A0A8009D
:102030008240A900030009002682BF008560A90034
:102040009560A800000006000000E0004220AF00FC
:10205000040037007B3E0900000000000000E9009A
:10206000FCFF3A0000000600C002A900C402A9005B
:10207000C022A900C422A8000C28EF00000006001E
:10208000C002A900C402A900C022A900C422A9005C
:1020900000000600C042A900C442A900C082A900F5
:1020A000C482A8000E28EF0000000600C042A9006C
:1020B000C442A900C082A900C482A9000000060091
:1020C000C822A900CC22A900C862A900CC62A8003D
:1020D0001028EF0000000600C822A900CC22A900A9
:1020E000C862A900CC62A90000000600C822A900AD
:1020F000CC22A800C862A900CC62A900140020006C
:102100008440880000000600851F78004C28EF00FE
:102110004C08E20047003A004A88BF008000EB000C
:1021200000F0A7008080EB004440800004005000D5
:1021300054408000848058004EA8B700744280004C
:102140008302200003A0B90050A8B7008442800099
:10215000037D20000418E10002003D00047D200002
:10216000844288008442800003832F000418E10029
:102170000200340004832F008442880074428000EF
:102180006020E1000500340076100200000000002D
:102190005008F8008C01F9001300370074428000E9
:1021A0006020E10007003D00601002000000000018
:1021B000040020008342800083025200650C8800E6
:1021C000090037004E08E20007003A006C100200D8
:1021D00000000000047D2000640C8800800C2000BA
:1021E00024100200000000004E88BF0000F0A6008E
:1021F00003003700040020007342800003005200F7
:10220000800278007E28E10009003D006C10020089
:1022100000000000047D2000640C8800800C200079
:102220002410020000000000140020006442880016
:10223000B7FF3700CF02780000000600851F780046
:10224000C500200003000900B51F780000027800D7
:102250008102780002037800830378000000EB001D
:102260008000EB000001EB008001EB000800A10002
:1022700007F0A600050037000800A0000402EA00ED
:102280008582EA000683EA008783EA0085047200FB
:1022900002003A008704730015003200394720001D
:1022A0000340A7000B0037004200A9000482D200BF
:1022B0008582D2000683D2008783D2000080D200BC
:1022C0008180D2000281D2008381D2008904E9009A
:1022D000F3FF3A00C44CDD004200A90009F0A10060
:1022E0000340A10083816C000800A70003F0A00058
:1022F0002501200003000900CF127800CF027800EA
:1023000000000600881F7800280120000400090052
:10231000B81F78008005EB006066B8000304780001
:1023200087047800FA7F20004200A9004220A9001B
:1023300044C4DE00080465000800E00071003200BB
:102340004200A9004220A900C4CCDE008904650037
:102350000900E0006B0032000884440009B0A700C7
:1023600004003700F83FB100660032006500390014
:10237000030037001A40200085424500610031000B
:10238000878669004200A9004220A900F300B2003C
:102390000340A000F700B2000740A000881F7800AB
:1023A0000124B800002DB8000A0544008B854C00BC
:1023B0000C80B0000224B8008B0544000C864C0051
:1023C000012CB8000005EB008B0544000C864C0086
:1023D0000A80B0000034B8008B0544000C864C0025
:1023E0000A80B0008005EB000324B8000C0644000E
:1023F0000A854C000B80B000022CB8000C0644008B
:102400000A854C000B80B0000134B8000C06440073
:102410000A854C000B80B000003CB8000C0644005C
:102420000A854C000B80B0000C0078000006EB0021
:10243000032CB8000A0544008B854C000C80B000CA
:102440000234B8000A0544008B854C000C80B000B3
:102450000334B8008B0544000C864C00013CB800E6
:102460000A0544008B854C000C80B000023CB8008B
:102470008B0544000C864C00033CB8000C0644005D
:102480008A0078000B0178008C017800540020004D
:102490004200A9008381D3000281D3008180D30050
:1024A0000080D3000402E900F9FF3A004F047800ED
:1024B0000804E80001037000010032000200370048
:1024C00003037100080032000340A7000600370034
:1024D0004200A9000080D2008180D2000281D20097
:1024E0008381D2000804E9004444DD0003F0A10028
:1024F0000DF0A70003F0A0000340A10083016C00D1
:10250000030037006000B8006001B8000000370029
:10251000A8012000040009004F1478004F0478003F
:1025200000000600881F7800280120000400090030
:10253000B81F7800080028004300AF0087036C0034
:102540000000E00007003A000100E00005003A004A
:102550000200E00003003A00FAFF27000A8561004C
:102560004220AE00030578008A856B0003047800E2
:102570008704780007067800FD7F20004220A9002C
:102580004200A90044C4DE00088466000800E000A0
:10259000BC0032004220A9004200A900C4CCDE00E9
:1025A000898466000900E000BE0032008006EB006E
:1025B0004220A9004200A9000848E100BA00320008
:1025C000C10033000D00A1000D10A00008845400CC
:1025D000F300B2000340A000F700B2000740A000E3
:1025E0004803B10016003B004803B0004220A90098
:1025F0004200A9008381D3000281D3008180D300EF
:102600000080D3000804E900F8FF3A001400370006
:102610004803B1000F003B004803B0004220A9006E
:102620004200A9008783D3000683D3008582D300AC
:102630000482D3000804E900F8FF3A001B003700C9
:102640000400780085007800060178008701780092
:102650000C866D000CF0A7000BF0A200790037008B
:102660000BF0A6001F0037000D40A7008C05780076
:102670000080EA008180EA000281EA0083C1EA006A
:10268000F341B2000000E80005003A008100E800D4
:1026900003003A000201E80001003A008341E8002B
:1026A0000D40A700320037000E0037000BF0A600E7
:1026B0000C0037000482EA008582EA000683EA0003
:1026C00087C3EA00F741B2000402E80005003A00BF
:1026D0008502E80003003A000603E80001003A0022
:1026E0008743E8004220A9004200A90004004000FE
:1026F000858048000601490087C149000350A700B2
:102700000D30A0000D00A700090037000D10A70034
:10271000010037000B0037000BF0A7001400370052
:102720000D30A700290037000D60A0002100370000
:102730000BF0A7000E0037000D30A7002300370074
:102740001C0037000BF0A700040037008A05780052
:102750000D30A7001D0037003A0037000D40A000E3
:1027600003C1B2000340A700BFFF37008A0578000D
:10277000F301B2000284710002003A00008470008C
:102780000C0032000340A7000A0037004220A900D5
:102790004200A9000080D2008180D2000281D200D4
:1027A0008381D2008904E9004220AF003200370063
:1027B000F4FF37000D00A7008A0578000D10A70070
:1027C0008C0578000D50A6001E0037004200A900BD
:1027D00083C1D3000281D3008180D3000080D30065
:1027E0004200AF000D50A0008904E8004220AF0075
:1027F000210037000D50A6000E0037000000E80051
:102800000C003A008100E8000A003A000201E800EA
:1028100008003A008301E80006003A0083C1D300B3
:102820000281D3008180D3000080D3008904E800B6
:10283000110032000D00A7008A0578000D10A700D6
:102840008C0578000102700002003A00030271005A
:10285000260032000340A1004220A9004200A90046
:10286000C44CDD0083816C0003F0A0000BF0A600D7
:1028700003F0A1001D0037006000B8006011B8002F
:102880001A003700080028000AF0A70087036C0030
:102890008500780004007800060178008701780040
:1028A0001200370011003700F700B2000740A00007
:1028B000F300B2000340A0000BF0A7000740A10006
:1028C0000D20A00079FF3700F300B2000340A00004
:1028D000F700B2000740A000090454008904440036
:1028E0000D10A1000D00A00049FF3700A801200035
:1028F000040009004F1478004F047800000006001F
:10290000851F7800861F7800030278000303780093
:102910004200A90044A2DE00F57F2000048262008C
:1029200003003A006000B8000001EB00130037001C
:102930000438B100F300B200370020004200A900C3
:102940000080D2008180D2000281D2008381D20037
:102950008703E900F9FF3A0001007800820078005F
:102960000370A1000480FD004200A9000482D3008E
:1029700006F0A70004F0A00003016A004F037800EE
:10298000CF02780000000600851F7800C5002000F7
:1029900004000900B51F78008004EB008384680000
:1029A0000103780080027800030478008203780035
:1029B0008180D2000180FD008180FB000100E000E9
:1029C0004E0032008381D2000380FD008381FB0032
:1029D0000300E000490032000000EB0003C050009B
:1029E00003003900F047B000440031000300370015
:1029F0001048B100410039004000320085007800E5
:102A0000060178000270A000F20FB200F80FB200C9
:102A10000870A0009A0120008001EB000002EB008A
:102A20008780500008015900020033000400310083
:102A300004003A0087804000080149000100370087
:102A40000400A0000A05E900070032004200A900C6
:102A50008180D2000281D2004200A9000482D2000B
:102A60008381D200EEFF37000005EB000380A70052
:102A700001003700060037004200A9008381D3001F
:102A80000370A1000482D3000A85D200020037003F
:102A90000000E900190032000AF0A7000500390023
:102AA0008180D2000281D200878050000801590045
:102AB000090039000402E80007003A008301E80039
:102AC00005003A000000E8000C0032000200370068
:102AD0000000E900090032000080FD008080D30082
:102AE00001F0A00009F0A60001F0A1000370A10010
:102AF00081C0690004007800030037000000200056
:102B000001002000000037004501200004000900FA
:102B1000CF127800CF027800000006000001780094
:102B200081017800014078000080FD0000F0A000E5
:102B30008180D2000180FD008180FB00E40820003C
:102B400081405200060032000000E0000400320024
:102B50004200A9000080D3008100E900FAFF3A009A
:102B600003F0A600020037000000EA000000370072
:102B700000000600851F7800861F7800871F7800F8
:102B8000881F78004A88BF008001EB0000F0A70092
:102B90008081EB0083007800030178001E110200A1
:102BA0000000000000027800810278000203780033
:102BB00083037800D0CC2C00C1CC2C00C2CC2C00DC
:102BC000230224008211020000000000800278002D
:102BD0000103780082037800030478004300A90011
:102BE000851F7800861F7800871F78000500780011
:102BF0008600780007017800880178000400200032
:102C00000500200006002E00570824009212020042
:102C100000000000CF0378004F037800CF02780057
:102C200080140200000000006142880072428800A7
:102C30004C88BF007142800002002000031824006D
:102C4000C4140200000000008E1502000000000005
:102C500050A8B7005008F8009801F9004F04780018
:102C6000CF0378004F037800CF0278000000060001
:102C7000851F78004428EF004628EF004408E20052
:102C80004F003A004608E20017003A00C902A800C7
:102C9000CB02AE0005003700341002000000000037
:102CA000C42B2000040C88000E003700C902A800C5
:102CB000CB02AF000B003700401002000000000004
:102CC000047D2000040C8800800C200024100200E9
:102CD000000000000028EF000228EF001400200090
:102CE0003442880035003700344280006120E10022
:102CF00017003A00C922A800CB22AE000500370019
:102D00004A10020000000000843E2000340C8800BD
:102D10000E003700C922A800CB22AF000B003700FD
:102D20005610020000000000047D2000340C8800D2
:102D3000800C200024100200000000000428EF0096
:102D40000628EF0024002000344288001B003700D2
:102D5000344280006220E10018003A00C942A80015
:102D6000CB42AF00050037006010020000000000F9
:102D7000C42B2000640C880010003700C942A80052
:102D8000CB42AE000D0037006C10020000000000C6
:102D9000047D2000640C8800800C200024100200B8
:102DA000000000000828EF000A28EF0014002000AF
:102DB000244288003400200034428800AFFF3700EE
:102DC000803E20002410020000000000441F20006C
:102DD000544288008410020000000000A405200076
:102DE00054428800BA15020000000000CF027800AB
:102DF00000000600851F7800C500200003000900C0
:102E0000B51F78000202B80003F0A60002003700E8
:102E10000383B900010037000303B8004200A90092
:102E20008502430060844B0001F0A60002003700D9
:102E3000028BB90001003700020BB80085024B007D
:102E400008844B000980B000038BB90008044B00D4
:102E500087834C008701780008017800850078009E
:102E6000040078002501200003000900CF1278003B
:102E7000CF02780000000600851F7800C500200002
:102E800003000900B51F7800090020004300AF00CF
:102E900019002000891F78008384680001F0A600D3
:102EA000030037008180EA000000EA00E08048006B
:102EB00003F0A600030037008381EA000201EA0064
:102EC000E081490003026900150032000002EB00B6
:102ED0008002EB000003EB008003EB0008022000FF
:102EE0004200A9000080D2008180D2000482D2007A
:102EF0008582D2000328E10001003A0002A0E1002F
:102F0000030039000202520083825A004200A800E6
:102F10000683D2008783D2000804E900F0FF3A005C
:102F200009F0A600070037000600EA0001003200A1
:102F300002003A008700EA00050037008780EA00B7
:102F40000300370087007800060078000000370093
:102F5000CF0478000900E000010032000400BE0048
:102F60002501200003000900CF127800CF0278006D
:102F700000000600C002A900C402A800C022A900E7
:102F8000C422A9001400200064408800000006004C
:102F9000851F78004828EF004808E20046003A0004
:102FA0004688BF008000EB0000F0A7008080EB00A7
:102FB00004408000040050001440800084805800C9
:102FC0004AA8B700544280006A20B8004CA8B70055
:102FD00064428000037D20000418E10002003D00EF
:102FE000047D2000644288006442800003832F0037
:102FF0000418E1000200340004832F0064428800BA
:10300000544280006020E10005003400BA1702003D
:10301000000000004C08F8008001F90013003700A0
:10302000544280006020E10007003D00341002009F
:103030000000000004002000634280008302520070
:10304000050C8800090037004A08E20007003A0032
:103050004010020000000000047D2000040C8800E5
:10306000800C200024100200000000004A88BF00ED
:1030700000F0A60003003700040020005342800047
:1030800003005200800278007428E10009003D002E
:103090004010020000000000047D2000040C8800A5
:1030A000800C20002410020000000000140020000A
:1030B00044428800B8FF3700CF02780000000600C5
:1030C000C042A900C442A800C082A900C482A900CD
:1030D000140020007440880000000600851F78005E
:1030E0004828EF004808E20046003A004688BF0042
:1030F0008000EB0000F0A7008080EB0024408000FF
:103100000400500034408000848058004AA8B70072
:10311000544280006A20B8004CA8B7006442800086
:10312000037D20000418E10002003D00047D200022
:10313000644288006442800003832F000418E10089
:103140000200340004832F0064428800544280004F
:103150006020E1000500340060180200000000005B
:103160004C08F8008601F900130037005442800033
:103170006020E10007003D004A100200000000004E
:10318000040020006342800083025200350C880056
:10319000090037004A08E20007003A005610020012
:1031A00000000000047D2000340C8800800C20000A
:1031B00024100200000000004A88BF0000F0A600B2
:1031C0000300370004002000534280000300520037
:1031D000800278007428E10009003D0056100200CA
:1031E00000000000047D2000340C8800800C2000CA
:1031F0002410020000000000140020004442880057
:10320000B8FF3700CF02780000000600851F780065
:10321000344180006420E10001003A002E28EF00D4
:10322000344180006320E1006B003C001E88BF0039
:103230000141800001F0A6000600370004002000D4
:10324000F34080000300520004002000034180008E
:1032500083005A008002780035428800C8170200B7
:1032600000000000401F20002410020000000000A9
:103270002288BF002141800001F0A600060037002F
:1032800004002000134180000300520004002000CD
:103290002341800083005A00800278003542880074
:1032A0006E180200000000001DC8BF004AE8B70009
:1032B0004B68EF00BA15020000000000401F20001C
:1032C000241002000000000004772100544288000E
:1032D0008410020000000000401F200024100200A3
:1032E00000000000C4082000940C88000071220037
:1032F0002410020000000000C4052000940C880087
:10330000401F2000241002000000000084BB2000A9
:10331000544288008410020000000000401F20007A
:10332000241002000000000084D4200034428800F1
:10333000C817020000000000401F200024100200F7
:10334000000000004628EF006E1802000000000098
:10335000401F20002410020000000000A4052000EF
:1033600054428800BA1502000000000084AF220019
:10337000734180008302520055428800841002008D
:1033800000000000C45D2000734180000480410003
:103390002EA8B70004052000940C880000E8230044
:1033A0002410020000000000C4052000940C8800D6
:1033B000441F2000544288008410020000000000D6
:1033C000803E200024100200000000003816020099
:1033D000000000006B0037001E88BF000141800024
:1033E00001F0A6000600370004002000F340800032
:1033F00003005200040020000341800083005A00B3
:103400008002780035428800C817020000000000E2
:10341000401F200024100200000000002288BF008E
:103420002141800001F0A6000600370004002000C2
:10343000134180000300520004002000234180005B
:1034400083005A0080027800354288006E1802001E
:10345000000000001DC8BF004AE8B7004B68EF003D
:10346000BA15020000000000401F200024100200D6
:1034700000000000047721005442880084100200FC
:1034800000000000401F2000241002000000000087
:10349000C4082000940C880000712200241002004F
:1034A00000000000C4052000940C8800401F20008C
:1034B000241002000000000084BB20005442880059
:1034C0008410020000000000401F200024100200B1
:1034D0000000000084D4200034428800C817020095
:1034E00000000000401F2000241002000000000027
:1034F00084892000344288006E1802000000000019
:10350000401F20002410020000000000A40520003D
:1035100054428800BA1502000000000084AF220067
:1035200073418000830252005542880084100200DB
:1035300000000000C45D2000734180000480410051
:103540002EA8B70004052000940C880000E8230092
:103550002410020000000000C4052000940C880024
:10356000441F200054428800841002000000000024
:10357000401F200024100200000000003816020046
:10358000000000002628EC00CF02780000000600B2
:10359000851F78001E88BF000141800001F0A60051
:1035A0000600370004002000F340800003005200B2
:1035B000040020000341800083005A00800278004C
:1035C00035428800C817020000000000401F20009C
:1035D00024100200000000002288BF00214180006A
:1035E00001F0A6000600370004002000134180000F
:1035F00003005200040020002341800083005A0091
:1036000080027800354288006E1802000000000039
:103610001DC8BF004AE8B7004B68EF00BA150200AA
:1036200000000000401F20002410020000000000E5
:10363000047721005442880084100200000000003A
:10364000401F20002410020000000000C4082000D9
:10365000940C880000712200241002000000000079
:10366000C4052000940C8800401F20002410020094
:103670000000000084BB2000544288008410020037
:1036800000000000401F2000241002000000000085
:10369000441F200034428800C817020000000000C8
:1036A000401F200024100200000000002C08F80039
:1036B0004608F9006E18020000000000047D20009A
:1036C00063418000048041002CA8B700401F200007
:1036D00024100200000000004A28EF00BA15020082
:1036E0000000000084AF22005442880084100200D1
:1036F0000000000004052000940C880000E823006E
:103700002410020000000000C4052000940C880072
:10371000441F200054428800841002000000000072
:10372000401F200024100200000000003816020094
:1037300000000000CF02780000000600851F78001E
:103740001E88BF000141800001F0A600060037007E
:1037500004002000F3408000030052000400200019
:103760000341800083005A008002780035428800BF
:10377000C817020000000000401F200024100200B3
:10378000000000002288BF002141800001F0A60057
:10379000060037000400200013418000030052009F
:1037A000040020002341800083005A00800278003A
:1037B000354288006E180200000000001DC8BF00DE
:1037C0004AE8B7004B68EF00BA150200000000009D
:1037D000401F200024100200000000000477210098
:1037E000544288008410020000000000401F2000A6
:1037F0002410020000000000C4082000940C88007F
:10380000007122002410020000000000C405200006
:10381000940C8800401F20002410020000000000CB
:1038200084BB200054428800841002000000000085
:10383000401F2000241002000000000044418000CE
:103840006120E10011003A00449C200034428800CD
:10385000C817020000000000401F200024100200D2
:10386000000000004628EF006E1802000000000073
:10387000401F200024100200000000004A28EF0032
:10388000BA150200000000003F00370044418000EC
:103890006220E10012003A0084D420003442880003
:1038A000C817020000000000401F20002410020082
:1038B000000000004628EF006E1802000000000023
:1038C000401F20002410020000000000A40520007A
:1038D00054428800BA150200000000002A00370098
:1038E000444180006320E10012003A00C4DA200065
:1038F00034428800C817020000000000401F20006A
:103900002410020000000000848920003442880056
:103910006E18020000000000401F2000241002006A
:10392000000000004A28EF00BA1502000000000065
:1039300015003700444180006420E10012003A0085
:1039400084A2200034428800C81702000000000052
:10395000401F2000241002000000000044832000CB
:10396000344288006E18020000000000401F200052
:103970002410020000000000A4052000544288002A
:10398000BA1502000000000084AF220054428800F3
:10399000841002000000000004052000940C880040
:1039A00000E823002410020000000000C4052000ED
:1039B000940C8800441F20005442880084100200A8
:1039C00000000000401F2000241002000000000042
:1039D00038160200000000002828EC00CF02780012
:1039E00000000600851F7800544180006420E1003B
:1039F00001003A003028EF00544180006320E100CC
:103A00006B003C001E88BF000141800001F0A60051
:103A10000600370004002000F3408000030052003D
:103A2000040020000341800083005A0080027800D7
:103A300035428800C817020000000000401F200027
:103A400024100200000000002288BF0021418000F5
:103A500001F0A6000600370004002000134180009A
:103A600003005200040020002341800083005A001C
:103A700080027800354288006E18020000000000C5
:103A80001DC8BF004AE8B7004B68EF00BA15020036
:103A900000000000401F2000241002000000000071
:103AA00004772100544288008410020000000000C6
:103AB000401F20002410020000000000C408200065
:103AC000940C880000712200241002000000000005
:103AD000C4052000940C8800401F20002410020020
:103AE0000000000084BB20005442880084100200C3
:103AF00000000000401F2000241002000000000011
:103B000084D4200083418000830252003542880023
:103B1000C817020000000000E4102000834180006C
:103B20000480410030A8B700401F2000241002008C
:103B3000000000004628EF006E18020000000000A0
:103B4000401F20002410020000000000A4052000F7
:103B500054428800BA1502000000000084AF220021
:103B60005442880084100200000000000405200078
:103B7000940C880000E823002410020000000000DC
:103B8000C4052000940C8800441F20005442880083
:103B90008410020000000000401F200024100200DA
:103BA0000000000038160200000000006B00370023
:103BB0001E88BF000141800001F0A600060037000A
:103BC00004002000F34080000300520004002000A5
:103BD0000341800083005A0080027800354288004B
:103BE000C817020000000000401F2000241002003F
:103BF000000000002288BF002141800001F0A600E3
:103C0000060037000400200013418000030052002A
:103C1000040020002341800083005A0080027800C5
:103C2000354288006E180200000000001DC8BF0069
:103C30004AE8B7004B68EF00BA1502000000000028
:103C4000401F200024100200000000000477210023
:103C5000544288008410020000000000401F200031
:103C60002410020000000000C4082000940C88000A
:103C7000007122002410020000000000C405200092
:103C8000940C8800401F2000241002000000000057
:103C900084BB200054428800841002000000000011
:103CA000401F2000241002000000000084D42000E7
:103CB000834180008302520035428800C817020009
:103CC00000000000E41020008341800004804100D7
:103CD00030A8B700401F20002410020000000000A0
:103CE00084892000344288006E1802000000000021
:103CF000401F20002410020000000000A405200046
:103D000054428800BA1502000000000084AF22006F
:103D100054428800841002000000000004052000C6
:103D2000940C880000E8230024100200000000002A
:103D3000C4052000940C8800441F200054428800D1
:103D40008410020000000000401F20002410020028
:103D50000000000038160200000000002A28EC00D5
:103D6000CF02780000000600851F7800C500200003
:103D700003000900B51F780000F0A6000C00370012
:103D80000000EA000480A00004F0A600080037004C
:103D9000801F7800D00220002322AF00FEFF3700F2
:103DA00024A2B7004F0078000480A1000860ED0055
:103DB0008002EB00800378008404780004F0A10006
:103DC0000404E00006003A0009F0A70002003700F2
:103DD000050020000F003700050020000D0037000F
:103DE000E64252000A0039000003200009F0A60054
:103DF000000220002322AF00FEFF370024A2B700FC
:103E00008502E900FBFF3B00550020000100370060
:103E100084027800640020000580A7000402E80006
:103E200005E0A00009F0A70005F0A000087122003D
:103E3000110009008883D800601F02000000000004
:103E400081037800883E2000110009008883D80093
:103E5000601F020000000000810378004806200077
:103E6000110009008883D800601F020000000000D4
:103E700081037800A8002000110009008883D80081
:103E8000601F0200000000000980A6000500370046
:103E9000D00220002322AF00FEFF370024A2B7008B
:103EA0000980A1000003200000C0400050018800EC
:103EB0002322AF00FEFF370024A2B7002000370006
:103EC000060320000000E0000E003A0005E0A60016
:103ED000160037000402E9000524E1000200320068
:103EE0004200AF00000006000000E00005003A00BC
:103EF00005E0A6000D00370005F0A6000602200030
:103F00000A00370005E0A1000980A600070037007D
:103F100000057800D00220002322AF00FEFF37000A
:103F200024A2B7000980A1000A00780000404300E5
:103F30002322AF00FEFF370024A2B70000000600D6
:103F40002501200003000900CF127800CF0278007D
:103F5000000006000F782200F07F220020A0B700AA
:103F600000000000404424004005880081E0A800D3
:103F70006004200042E7B7007005200042E7B70068
:103F800042C7A900F063200080A6B70050F02300CC
:103F900082A6B700C0F02300A4A6B700200120002D
:103FA000C0A6B70030012000C2A6B7004001200023
:103FB000C4A6B70000302000CCA6B7005061210095
:103FC000CEA6B7006004200042E7B70070052000CD
:103FD00042E7B70042C7A8004427EF0004002800CA
:103FE0000411880004402000141188002062A800F9
:103FF00024022000441188000028EF000228EF006E
:104000000428EF000628EF000828EF000A28EF0038
:104010000C28EF000E28EF001028EF0014002000FD
:10402000C44088001A28EF001C68EF001D68EF00EC
:104030001E28EF002028EF002228EF002428EF00A0
:1040400014002000344188001400200044418800FE
:1040500014002000544188002C28EF002E28EF0087
:104060003028EF002CA3EF001228EF001428EF00F7
:104070001628EF0081E0A900040E20001402880039
:1040800081E0A8001021EF00047D20006408880072
:1040900004012800840888001221EF00244E20002B
:1040A0007408880004032800940888006400200035
:1040B000240C880064002000540C88006400200058
:1040C000840C8800E4002000B40C8800E400200088
:1040D000E40C88000E1002000000000081E0A9003E
:1040E0004220EF0081E0A8008021EF008621EF0050
:1040F0008C21EF00C4052000940C88009821EF006B
:10410000803E20002410020000000000381602004B
:104110000000000004052000940C880000E2240048
:104120002410020000000000C4052000940C880048
:10413000E44080006124E100A200390013C8BF0000
:10414000804278000B60EF0006002000E3825200FE
:1041500060035B000500780086007800C25D2000E7
:1041600003002000FA160200000000008002780020
:10417000010378004300A90005007800860078005C
:10418000F2002000030020003C17020000000000A5
:104190001EA8B7000141880015C8BF008042780002
:1041A0000B60EF0006002000E382520060035B001A
:1041B0000500780086007800C25D20000300200022
:1041C000FA16020000000000800278000103780067
:1041D0004300A900050078008600780072002000E6
:1041E000030020003C1702000000000022A8B700D6
:1041F00021418800044180006020E1000800350072
:1042000004003C00F4408000C3DA20000418E10000
:1042100003003100C4DA2000F44088002028EF00B9
:10422000244180006020E1000800350004003C00CB
:1042300014418000037721000418E10003003100DD
:1042400004772100144188002428EF0032C8BF0001
:104250000160EF001080B200050032003080B20033
:10426000140032001080B200230032003300370007
:1042700033C8BF003448E30007003A00F54080002F
:1042800016418000E5418800F641880006190200C9
:104290000000000006003700F54080001641800055
:1042A000E5418800F6418800C81A020000000000BD
:1042B0002200370033C8BF003448E30007003A004B
:1042C000F540800016418000E5418800F6418800F5
:1042D0009E1B02000000000006003700F540800031
:1042E00016418000E5418800F6418800C81A0200A6
:1042F000000000001100370033C8BF003448E3005D
:1043000007003A00F540800016418000E541880032
:10431000F6418800F21C0200000000000600370091
:10432000F540800016418000E5418800F641880094
:10433000C81A020000000000000037000100200041
:10434000010078000160EF00FC0D02000000000099
:104350008100E8002322AF00FEFF370024A2B7004F
:10436000500020000008E600F5FF370034C8BF0009
:104370000000FB0004002000B41E0200000000004A
:104380002322AF00FEFF3700A40020002411880084
:1043900001002000010078000160EF00120E020011
:1043A000000000008100E8002322AF00FEFF37007C
:1043B00024A2B700300020000008E600F5FF370017
:1043C0001C68EF005AFF37000020EF000040FE009D
:020000040001F9
:0807F800F7F900FF7F3F00FF4D
:00000001FF
;PIC24FJ48GA002
;CRC=FF8A  CREATED="26-Nov-18 12:09"
